{
  "_format": "hh-sol-artifact-1",
  "contractName": "GameVault",
  "sourceName": "contracts/GameVault.sol",
  "abi": [
    {
      "inputs": [
        {
          "internalType": "address",
          "name": "_weETH",
          "type": "address"
        }
      ],
      "stateMutability": "nonpayable",
      "type": "constructor"
    },
    {
      "inputs": [],
      "name": "EnforcedPause",
      "type": "error"
    },
    {
      "inputs": [],
      "name": "ExpectedPause",
      "type": "error"
    },
    {
      "inputs": [
        {
          "internalType": "address",
          "name": "owner",
          "type": "address"
        }
      ],
      "name": "OwnableInvalidOwner",
      "type": "error"
    },
    {
      "inputs": [
        {
          "internalType": "address",
          "name": "account",
          "type": "address"
        }
      ],
      "name": "OwnableUnauthorizedAccount",
      "type": "error"
    },
    {
      "inputs": [],
      "name": "ReentrancyGuardReentrantCall",
      "type": "error"
    },
    {
      "inputs": [
        {
          "internalType": "address",
          "name": "token",
          "type": "address"
        }
      ],
      "name": "SafeERC20FailedOperation",
      "type": "error"
    },
    {
      "anonymous": false,
      "inputs": [
        {
          "indexed": true,
          "internalType": "address",
          "name": "user",
          "type": "address"
        },
        {
          "indexed": false,
          "internalType": "uint256",
          "name": "amount",
          "type": "uint256"
        },
        {
          "indexed": false,
          "internalType": "uint256",
          "name": "newBalance",
          "type": "uint256"
        }
      ],
      "name": "Deposited",
      "type": "event"
    },
    {
      "anonymous": false,
      "inputs": [
        {
          "indexed": true,
          "internalType": "address",
          "name": "user",
          "type": "address"
        },
        {
          "indexed": false,
          "internalType": "uint256",
          "name": "amount",
          "type": "uint256"
        }
      ],
      "name": "EmergencyWithdraw",
      "type": "event"
    },
    {
      "anonymous": false,
      "inputs": [
        {
          "indexed": true,
          "internalType": "address",
          "name": "previousOwner",
          "type": "address"
        },
        {
          "indexed": true,
          "internalType": "address",
          "name": "newOwner",
          "type": "address"
        }
      ],
      "name": "OwnershipTransferred",
      "type": "event"
    },
    {
      "anonymous": false,
      "inputs": [
        {
          "indexed": false,
          "internalType": "address",
          "name": "account",
          "type": "address"
        }
      ],
      "name": "Paused",
      "type": "event"
    },
    {
      "anonymous": false,
      "inputs": [
        {
          "indexed": false,
          "internalType": "address",
          "name": "account",
          "type": "address"
        }
      ],
      "name": "Unpaused",
      "type": "event"
    },
    {
      "anonymous": false,
      "inputs": [
        {
          "indexed": true,
          "internalType": "address",
          "name": "user",
          "type": "address"
        },
        {
          "indexed": false,
          "internalType": "uint256",
          "name": "amount",
          "type": "uint256"
        },
        {
          "indexed": false,
          "internalType": "uint256",
          "name": "newBalance",
          "type": "uint256"
        }
      ],
      "name": "Withdrawn",
      "type": "event"
    },
    {
      "inputs": [
        {
          "internalType": "uint256",
          "name": "amount",
          "type": "uint256"
        }
      ],
      "name": "deposit",
      "outputs": [],
      "stateMutability": "nonpayable",
      "type": "function"
    },
    {
      "inputs": [],
      "name": "emergencyWithdraw",
      "outputs": [],
      "stateMutability": "nonpayable",
      "type": "function"
    },
    {
      "inputs": [
        {
          "internalType": "address",
          "name": "user",
          "type": "address"
        }
      ],
      "name": "getPrincipalBalance",
      "outputs": [
        {
          "internalType": "uint256",
          "name": "",
          "type": "uint256"
        }
      ],
      "stateMutability": "view",
      "type": "function"
    },
    {
      "inputs": [],
      "name": "owner",
      "outputs": [
        {
          "internalType": "address",
          "name": "",
          "type": "address"
        }
      ],
      "stateMutability": "view",
      "type": "function"
    },
    {
      "inputs": [],
      "name": "pause",
      "outputs": [],
      "stateMutability": "nonpayable",
      "type": "function"
    },
    {
      "inputs": [],
      "name": "paused",
      "outputs": [
        {
          "internalType": "bool",
          "name": "",
          "type": "bool"
        }
      ],
      "stateMutability": "view",
      "type": "function"
    },
    {
      "inputs": [
        {
          "internalType": "address",
          "name": "",
          "type": "address"
        }
      ],
      "name": "principalBalances",
      "outputs": [
        {
          "internalType": "uint256",
          "name": "",
          "type": "uint256"
        }
      ],
      "stateMutability": "view",
      "type": "function"
    },
    {
      "inputs": [],
      "name": "renounceOwnership",
      "outputs": [],
      "stateMutability": "nonpayable",
      "type": "function"
    },
    {
      "inputs": [],
      "name": "totalPrincipal",
      "outputs": [
        {
          "internalType": "uint256",
          "name": "",
          "type": "uint256"
        }
      ],
      "stateMutability": "view",
      "type": "function"
    },
    {
      "inputs": [
        {
          "internalType": "address",
          "name": "newOwner",
          "type": "address"
        }
      ],
      "name": "transferOwnership",
      "outputs": [],
      "stateMutability": "nonpayable",
      "type": "function"
    },
    {
      "inputs": [],
      "name": "unpause",
      "outputs": [],
      "stateMutability": "nonpayable",
      "type": "function"
    },
    {
      "inputs": [],
      "name": "weETH",
      "outputs": [
        {
          "internalType": "contract IERC20",
          "name": "",
          "type": "address"
        }
      ],
      "stateMutability": "view",
      "type": "function"
    },
    {
      "inputs": [
        {
          "internalType": "uint256",
          "name": "amount",
          "type": "uint256"
        }
      ],
      "name": "withdraw",
      "outputs": [],
      "stateMutability": "nonpayable",
      "type": "function"
    }
  ],
  "bytecode": "0x60a060405234801561001057600080fd5b50604051610aec380380610aec83398101604081905261002f91610126565b6001600055338061005b57604051631e4fbdf760e01b8152600060048201526024015b60405180910390fd5b610064816100cc565b506001600160a01b0381166100bb5760405162461bcd60e51b815260206004820181905260248201527f47616d655661756c743a20496e76616c696420776545544820616464726573736044820152606401610052565b6001600160a01b0316608052610156565b600180546001600160a01b03838116610100818102610100600160a81b031985161790945560405193909204169182907f8be0079c531659141344cd1fd0a4f28419497f9722a3daafe3b4186f6b6457e090600090a35050565b60006020828403121561013857600080fd5b81516001600160a01b038116811461014f57600080fd5b9392505050565b60805161096661018660003960008181610195015281816102d6015281816103c4015261051c01526109666000f3fe608060405234801561001057600080fd5b50600436106100cf5760003560e01c80638456cb591161008c578063c72bf7a511610066578063c72bf7a514610190578063db2e21bc146101b7578063e3b237e4146101bf578063f2fde38b146101e857600080fd5b80638456cb591461014b5780638da5cb5b14610153578063b6b55f251461017d57600080fd5b80632e1a7d4d146100d45780633f4ba83a146100e95780634b1533b2146100f15780635c975abb1461010d5780636babe43b14610123578063715018a614610143575b600080fd5b6100e76100e236600461085d565b6101fb565b005b6100e7610353565b6100fa60035481565b6040519081526020015b60405180910390f35b60015460ff166040519015158152602001610104565b6100fa610131366004610876565b60026020526000908152604090205481565b6100e7610365565b6100e7610377565b60015461010090046001600160a01b03165b6040516001600160a01b039091168152602001610104565b6100e761018b36600461085d565b610387565b6101657f000000000000000000000000000000000000000000000000000000000000000081565b6100e761046e565b6100fa6101cd366004610876565b6001600160a01b031660009081526002602052604090205490565b6100e76101f6366004610876565b610583565b6102036105be565b6000811161022c5760405162461bcd60e51b8152600401610223906108a6565b60405180910390fd5b3360009081526002602052604090205481111561028b5760405162461bcd60e51b815260206004820152601f60248201527f47616d655661756c743a20496e73756666696369656e742062616c616e6365006044820152606401610223565b33600090815260026020526040812080548392906102aa908490610904565b9250508190555080600360008282546102c39190610904565b909155506102fd90506001600160a01b037f00000000000000000000000000000000000000000000000000000000000000001633836105e8565b33600081815260026020908152604091829020548251858152918201527f92ccf450a286a957af52509bc1c9939d1a6a481783e142e41e2499f0bb66ebc691015b60405180910390a26103506001600055565b50565b61035b61064c565b61036361067f565b565b61036d61064c565b61036360006106d1565b61037f61064c565b61036361072b565b61038f6105be565b610397610766565b600081116103b75760405162461bcd60e51b8152600401610223906108a6565b6103ec6001600160a01b037f00000000000000000000000000000000000000000000000000000000000000001633308461078a565b336000908152600260205260408120805483929061040b90849061091d565b925050819055508060036000828254610424919061091d565b909155505033600081815260026020908152604091829020548251858152918201527f73a19dd210f1a7f902193214c0ee91dd35ee5b4d920cba8d519eca65a7b488ca910161033e565b6104766105be565b61047e6107c9565b33600090815260026020526040902054806104e55760405162461bcd60e51b815260206004820152602160248201527f47616d655661756c743a204e6f2062616c616e636520746f20776974686472616044820152607760f81b6064820152608401610223565b33600090815260026020526040812081905560038054839290610509908490610904565b9091555061054390506001600160a01b037f00000000000000000000000000000000000000000000000000000000000000001633836105e8565b60405181815233907f5fafa99d0643513820be26656b45130b01e1c03062e1266bf36f88cbd3bd96959060200160405180910390a2506103636001600055565b61058b61064c565b6001600160a01b0381166105b557604051631e4fbdf760e01b815260006004820152602401610223565b610350816106d1565b6002600054036105e157604051633ee5aeb560e01b815260040160405180910390fd5b6002600055565b6040516001600160a01b0383811660248301526044820183905261064791859182169063a9059cbb906064015b604051602081830303815290604052915060e01b6020820180516001600160e01b0383818316178352505050506107ec565b505050565b6001546001600160a01b036101009091041633146103635760405163118cdaa760e01b8152336004820152602401610223565b6106876107c9565b6001805460ff191690557f5db9ee0a495bf2e6ff9c91a7834c1ba4fdd244a5e8aa4e537bd38aeae4b073aa335b6040516001600160a01b03909116815260200160405180910390a1565b600180546001600160a01b03838116610100818102610100600160a81b031985161790945560405193909204169182907f8be0079c531659141344cd1fd0a4f28419497f9722a3daafe3b4186f6b6457e090600090a35050565b610733610766565b6001805460ff1916811790557f62e78cea01bee320cd4e420270b5ea74000d11b0c9f74754ebdbfc544b05a258336106b4565b60015460ff16156103635760405163d93c066560e01b815260040160405180910390fd5b6040516001600160a01b0384811660248301528381166044830152606482018390526107c39186918216906323b872dd90608401610615565b50505050565b60015460ff1661036357604051638dfc202b60e01b815260040160405180910390fd5b600080602060008451602086016000885af18061080f576040513d6000823e3d81fd5b50506000513d91508115610827578060011415610834565b6001600160a01b0384163b155b156107c357604051635274afe760e01b81526001600160a01b0385166004820152602401610223565b60006020828403121561086f57600080fd5b5035919050565b60006020828403121561088857600080fd5b81356001600160a01b038116811461089f57600080fd5b9392505050565b60208082526028908201527f47616d655661756c743a20416d6f756e74206d75737420626520677265617465604082015267072207468616e20360c41b606082015260800190565b634e487b7160e01b600052601160045260246000fd5b81810381811115610917576109176108ee565b92915050565b80820180821115610917576109176108ee56fea26469706673582212201d3def860e1046c05608c5fdd689377f9719b521919eb0d4e95c82ad9387c71864736f6c63430008140033",
  "linkReferences": {},
  "deployedLinkReferences": {}
}