{
  "_format": "hh-sol-artifact-1",
  "contractName": "MockWeETH",
  "sourceName": "contracts/MockWeETH.sol",
  "abi": [
    {
      "inputs": [],
      "stateMutability": "nonpayable",
      "type": "constructor"
    },
    {
      "inputs": [
        {
          "internalType": "address",
          "name": "spender",
          "type": "address"
        },
        {
          "internalType": "uint256",
          "name": "allowance",
          "type": "uint256"
        },
        {
          "internalType": "uint256",
          "name": "needed",
          "type": "uint256"
        }
      ],
      "name": "ERC20InsufficientAllowance",
      "type": "error"
    },
    {
      "inputs": [
        {
          "internalType": "address",
          "name": "sender",
          "type": "address"
        },
        {
          "internalType": "uint256",
          "name": "balance",
          "type": "uint256"
        },
        {
          "internalType": "uint256",
          "name": "needed",
          "type": "uint256"
        }
      ],
      "name": "ERC20InsufficientBalance",
      "type": "error"
    },
    {
      "inputs": [
        {
          "internalType": "address",
          "name": "approver",
          "type": "address"
        }
      ],
      "name": "ERC20InvalidApprover",
      "type": "error"
    },
    {
      "inputs": [
        {
          "internalType": "address",
          "name": "receiver",
          "type": "address"
        }
      ],
      "name": "ERC20InvalidReceiver",
      "type": "error"
    },
    {
      "inputs": [
        {
          "internalType": "address",
          "name": "sender",
          "type": "address"
        }
      ],
      "name": "ERC20InvalidSender",
      "type": "error"
    },
    {
      "inputs": [
        {
          "internalType": "address",
          "name": "spender",
          "type": "address"
        }
      ],
      "name": "ERC20InvalidSpender",
      "type": "error"
    },
    {
      "inputs": [
        {
          "internalType": "address",
          "name": "owner",
          "type": "address"
        }
      ],
      "name": "OwnableInvalidOwner",
      "type": "error"
    },
    {
      "inputs": [
        {
          "internalType": "address",
          "name": "account",
          "type": "address"
        }
      ],
      "name": "OwnableUnauthorizedAccount",
      "type": "error"
    },
    {
      "anonymous": false,
      "inputs": [
        {
          "indexed": true,
          "internalType": "address",
          "name": "owner",
          "type": "address"
        },
        {
          "indexed": true,
          "internalType": "address",
          "name": "spender",
          "type": "address"
        },
        {
          "indexed": false,
          "internalType": "uint256",
          "name": "value",
          "type": "uint256"
        }
      ],
      "name": "Approval",
      "type": "event"
    },
    {
      "anonymous": false,
      "inputs": [
        {
          "indexed": true,
          "internalType": "address",
          "name": "previousOwner",
          "type": "address"
        },
        {
          "indexed": true,
          "internalType": "address",
          "name": "newOwner",
          "type": "address"
        }
      ],
      "name": "OwnershipTransferred",
      "type": "event"
    },
    {
      "anonymous": false,
      "inputs": [
        {
          "indexed": true,
          "internalType": "address",
          "name": "from",
          "type": "address"
        },
        {
          "indexed": true,
          "internalType": "address",
          "name": "to",
          "type": "address"
        },
        {
          "indexed": false,
          "internalType": "uint256",
          "name": "value",
          "type": "uint256"
        }
      ],
      "name": "Transfer",
      "type": "event"
    },
    {
      "inputs": [
        {
          "internalType": "address",
          "name": "owner",
          "type": "address"
        },
        {
          "internalType": "address",
          "name": "spender",
          "type": "address"
        }
      ],
      "name": "allowance",
      "outputs": [
        {
          "internalType": "uint256",
          "name": "",
          "type": "uint256"
        }
      ],
      "stateMutability": "view",
      "type": "function"
    },
    {
      "inputs": [
        {
          "internalType": "address",
          "name": "spender",
          "type": "address"
        },
        {
          "internalType": "uint256",
          "name": "value",
          "type": "uint256"
        }
      ],
      "name": "approve",
      "outputs": [
        {
          "internalType": "bool",
          "name": "",
          "type": "bool"
        }
      ],
      "stateMutability": "nonpayable",
      "type": "function"
    },
    {
      "inputs": [
        {
          "internalType": "address",
          "name": "account",
          "type": "address"
        }
      ],
      "name": "balanceOf",
      "outputs": [
        {
          "internalType": "uint256",
          "name": "",
          "type": "uint256"
        }
      ],
      "stateMutability": "view",
      "type": "function"
    },
    {
      "inputs": [],
      "name": "decimals",
      "outputs": [
        {
          "internalType": "uint8",
          "name": "",
          "type": "uint8"
        }
      ],
      "stateMutability": "view",
      "type": "function"
    },
    {
      "inputs": [],
      "name": "faucet",
      "outputs": [],
      "stateMutability": "nonpayable",
      "type": "function"
    },
    {
      "inputs": [
        {
          "internalType": "address",
          "name": "to",
          "type": "address"
        },
        {
          "internalType": "uint256",
          "name": "amount",
          "type": "uint256"
        }
      ],
      "name": "mint",
      "outputs": [],
      "stateMutability": "nonpayable",
      "type": "function"
    },
    {
      "inputs": [],
      "name": "name",
      "outputs": [
        {
          "internalType": "string",
          "name": "",
          "type": "string"
        }
      ],
      "stateMutability": "view",
      "type": "function"
    },
    {
      "inputs": [],
      "name": "owner",
      "outputs": [
        {
          "internalType": "address",
          "name": "",
          "type": "address"
        }
      ],
      "stateMutability": "view",
      "type": "function"
    },
    {
      "inputs": [],
      "name": "renounceOwnership",
      "outputs": [],
      "stateMutability": "nonpayable",
      "type": "function"
    },
    {
      "inputs": [],
      "name": "symbol",
      "outputs": [
        {
          "internalType": "string",
          "name": "",
          "type": "string"
        }
      ],
      "stateMutability": "view",
      "type": "function"
    },
    {
      "inputs": [],
      "name": "totalSupply",
      "outputs": [
        {
          "internalType": "uint256",
          "name": "",
          "type": "uint256"
        }
      ],
      "stateMutability": "view",
      "type": "function"
    },
    {
      "inputs": [
        {
          "internalType": "address",
          "name": "to",
          "type": "address"
        },
        {
          "internalType": "uint256",
          "name": "value",
          "type": "uint256"
        }
      ],
      "name": "transfer",
      "outputs": [
        {
          "internalType": "bool",
          "name": "",
          "type": "bool"
        }
      ],
      "stateMutability": "nonpayable",
      "type": "function"
    },
    {
      "inputs": [
        {
          "internalType": "address",
          "name": "from",
          "type": "address"
        },
        {
          "internalType": "address",
          "name": "to",
          "type": "address"
        },
        {
          "internalType": "uint256",
          "name": "value",
          "type": "uint256"
        }
      ],
      "name": "transferFrom",
      "outputs": [
        {
          "internalType": "bool",
          "name": "",
          "type": "bool"
        }
      ],
      "stateMutability": "nonpayable",
      "type": "function"
    },
    {
      "inputs": [
        {
          "internalType": "address",
          "name": "newOwner",
          "type": "address"
        }
      ],
      "name": "transferOwnership",
      "outputs": [],
      "stateMutability": "nonpayable",
      "type": "function"
    }
  ],
  "bytecode": "0x60806040523480156200001157600080fd5b50336040518060400160405280601481526020017f577261707065642045746865722e666920455448000000000000000000000000815250604051806040016040528060058152602001640eeca8aa8960db1b815250816003908162000078919062000381565b50600462000087828262000381565b5050506001600160a01b038116620000ba57604051631e4fbdf760e01b8152600060048201526024015b60405180910390fd5b620000c58162000119565b506005805460ff60a01b1916600960a11b1790556200011333620000f2600554600160a01b900460ff1690565b620000ff90600a62000562565b6200010d906127106200057a565b6200016b565b620005aa565b600580546001600160a01b038381166001600160a01b0319831681179093556040519116919082907f8be0079c531659141344cd1fd0a4f28419497f9722a3daafe3b4186f6b6457e090600090a35050565b6001600160a01b038216620001975760405163ec442f0560e01b815260006004820152602401620000b1565b620001a560008383620001a9565b5050565b6001600160a01b038316620001d8578060026000828254620001cc919062000594565b909155506200024c9050565b6001600160a01b038316600090815260208190526040902054818110156200022d5760405163391434e360e21b81526001600160a01b03851660048201526024810182905260448101839052606401620000b1565b6001600160a01b03841660009081526020819052604090209082900390555b6001600160a01b0382166200026a5760028054829003905562000289565b6001600160a01b03821660009081526020819052604090208054820190555b816001600160a01b0316836001600160a01b03167fddf252ad1be2c89b69c2b068fc378daa952ba7f163c4a11628f55a4df523b3ef83604051620002cf91815260200190565b60405180910390a3505050565b634e487b7160e01b600052604160045260246000fd5b600181811c908216806200030757607f821691505b6020821081036200032857634e487b7160e01b600052602260045260246000fd5b50919050565b601f8211156200037c57600081815260208120601f850160051c81016020861015620003575750805b601f850160051c820191505b81811015620003785782815560010162000363565b5050505b505050565b81516001600160401b038111156200039d576200039d620002dc565b620003b581620003ae8454620002f2565b846200032e565b602080601f831160018114620003ed5760008415620003d45750858301515b600019600386901b1c1916600185901b17855562000378565b600085815260208120601f198616915b828110156200041e57888601518255948401946001909101908401620003fd565b50858210156200043d5787850151600019600388901b60f8161c191681555b5050505050600190811b01905550565b634e487b7160e01b600052601160045260246000fd5b600181815b80851115620004a45781600019048211156200048857620004886200044d565b808516156200049657918102915b93841c939080029062000468565b509250929050565b600082620004bd575060016200055c565b81620004cc575060006200055c565b8160018114620004e55760028114620004f05762000510565b60019150506200055c565b60ff8411156200050457620005046200044d565b50506001821b6200055c565b5060208310610133831016604e8410600b841016171562000535575081810a6200055c565b62000541838362000463565b80600019048211156200055857620005586200044d565b0290505b92915050565b60006200057360ff841683620004ac565b9392505050565b80820281158282048414176200055c576200055c6200044d565b808201808211156200055c576200055c6200044d565b610a3d80620005ba6000396000f3fe608060405234801561001057600080fd5b50600436106100ea5760003560e01c8063715018a61161008c578063a9059cbb11610066578063a9059cbb146101dd578063dd62ed3e146101f0578063de5f72fd14610229578063f2fde38b1461023157600080fd5b8063715018a6146101b25780638da5cb5b146101ba57806395d89b41146101d557600080fd5b806323b872dd116100c857806323b872dd14610142578063313ce5671461015557806340c10f191461017457806370a082311461018957600080fd5b806306fdde03146100ef578063095ea7b31461010d57806318160ddd14610130575b600080fd5b6100f7610244565b6040516101049190610775565b60405180910390f35b61012061011b3660046107df565b6102d6565b6040519015158152602001610104565b6002545b604051908152602001610104565b610120610150366004610809565b6102f0565b600554600160a01b900460ff1660405160ff9091168152602001610104565b6101876101823660046107df565b610314565b005b610134610197366004610845565b6001600160a01b031660009081526020819052604090205490565b61018761032a565b6005546040516001600160a01b039091168152602001610104565b6100f761033e565b6101206101eb3660046107df565b61034d565b6101346101fe366004610867565b6001600160a01b03918216600090815260016020908152604080832093909416825291909152205490565b61018761035b565b61018761023f366004610845565b61038e565b6060600380546102539061089a565b80601f016020809104026020016040519081016040528092919081815260200182805461027f9061089a565b80156102cc5780601f106102a1576101008083540402835291602001916102cc565b820191906000526020600020905b8154815290600101906020018083116102af57829003601f168201915b5050505050905090565b6000336102e48185856103d1565b60019150505b92915050565b6000336102fe8582856103e3565b610309858585610462565b506001949350505050565b61031c6104c1565b61032682826104ee565b5050565b6103326104c1565b61033c6000610524565b565b6060600480546102539061089a565b6000336102e4818585610462565b61033c3361037360055460ff600160a01b9091041690565b61037e90600a6109ce565b61038990600a6109dd565b6104ee565b6103966104c1565b6001600160a01b0381166103c557604051631e4fbdf760e01b8152600060048201526024015b60405180910390fd5b6103ce81610524565b50565b6103de8383836001610576565b505050565b6001600160a01b0383811660009081526001602090815260408083209386168352929052205460001981101561045c578181101561044d57604051637dc7a0d960e11b81526001600160a01b038416600482015260248101829052604481018390526064016103bc565b61045c84848484036000610576565b50505050565b6001600160a01b03831661048c57604051634b637e8f60e11b8152600060048201526024016103bc565b6001600160a01b0382166104b65760405163ec442f0560e01b8152600060048201526024016103bc565b6103de83838361064b565b6005546001600160a01b0316331461033c5760405163118cdaa760e01b81523360048201526024016103bc565b6001600160a01b0382166105185760405163ec442f0560e01b8152600060048201526024016103bc565b6103266000838361064b565b600580546001600160a01b038381166001600160a01b0319831681179093556040519116919082907f8be0079c531659141344cd1fd0a4f28419497f9722a3daafe3b4186f6b6457e090600090a35050565b6001600160a01b0384166105a05760405163e602df0560e01b8152600060048201526024016103bc565b6001600160a01b0383166105ca57604051634a1406b160e11b8152600060048201526024016103bc565b6001600160a01b038085166000908152600160209081526040808320938716835292905220829055801561045c57826001600160a01b0316846001600160a01b03167f8c5be1e5ebec7d5bd14f71427d1e84f3dd0314c0f7b2291e5b200ac8c7c3b9258460405161063d91815260200190565b60405180910390a350505050565b6001600160a01b03831661067657806002600082825461066b91906109f4565b909155506106e89050565b6001600160a01b038316600090815260208190526040902054818110156106c95760405163391434e360e21b81526001600160a01b038516600482015260248101829052604481018390526064016103bc565b6001600160a01b03841660009081526020819052604090209082900390555b6001600160a01b03821661070457600280548290039055610723565b6001600160a01b03821660009081526020819052604090208054820190555b816001600160a01b0316836001600160a01b03167fddf252ad1be2c89b69c2b068fc378daa952ba7f163c4a11628f55a4df523b3ef8360405161076891815260200190565b60405180910390a3505050565b600060208083528351808285015260005b818110156107a257858101830151858201604001528201610786565b506000604082860101526040601f19601f8301168501019250505092915050565b80356001600160a01b03811681146107da57600080fd5b919050565b600080604083850312156107f257600080fd5b6107fb836107c3565b946020939093013593505050565b60008060006060848603121561081e57600080fd5b610827846107c3565b9250610835602085016107c3565b9150604084013590509250925092565b60006020828403121561085757600080fd5b610860826107c3565b9392505050565b6000806040838503121561087a57600080fd5b610883836107c3565b9150610891602084016107c3565b90509250929050565b600181811c908216806108ae57607f821691505b6020821081036108ce57634e487b7160e01b600052602260045260246000fd5b50919050565b634e487b7160e01b600052601160045260246000fd5b600181815b8085111561092557816000190482111561090b5761090b6108d4565b8085161561091857918102915b93841c93908002906108ef565b509250929050565b60008261093c575060016102ea565b81610949575060006102ea565b816001811461095f576002811461096957610985565b60019150506102ea565b60ff84111561097a5761097a6108d4565b50506001821b6102ea565b5060208310610133831016604e8410600b84101617156109a8575081810a6102ea565b6109b283836108ea565b80600019048211156109c6576109c66108d4565b029392505050565b600061086060ff84168361092d565b80820281158282048414176102ea576102ea6108d4565b808201808211156102ea576102ea6108d456fea26469706673582212202b7a29b988e481d80c6a62f39af94ab0addba31f1bb7a2e0a72c599c029f76be64736f6c63430008140033",
  "linkReferences": {},
  "deployedLinkReferences": {}
}